:100000000010002089220000AFAA0400AFAA04005B
:10001000AFAA0400AFAA0400AFAA0400AFAA04006C
:10002000AFAA0400AFAA0400AFAA0400AFAA04005C
:10003000AFAA0400AFAA0400637A0000AFAA0400CC
:10004000AFAA040081FA0100AFAA0400AFAA04001D
:10005000D1F20100313E05002D3E0500A1FA01005C
:10006000253E0500052E0000AFAA0400AFAA04003B
:10007000B51F0000A51F0000AFAA0400AFAA04002E
:10008000AFAA0400AFAA0400AFAA0400AFAA0400FC
:10009000AFAA0400AFAA0400AFAA0400AFAA0400EC
:1000A000AFAA0400AFAA0400AFAA0400AFAA0400DC
:1000B000D5FA0100293E050091D4000011FB010092
:1000C000AFAA040071E40100AFAA0400AFAA0400C3
:1000D000AFAA0400AFAA0400AFAA0400AFAA0400AC
:1000E000AFAA0400AFAA0400AFAA0400AFAA04009C
:1000F000AFAA0400AFAA0400AFAA0400AFAA04008C
:10010000AFAA0400AFAA0400AFAA040000000000D8
:10011000013800D0FCE7704700000000000000003C
:1001200001F0FF01102A2BDB10F0070F08D010F8A8
:10013000013B013A8B422DD010F0070F42B3F6D1AC
:10014000F0B441EA012141EA014122F007047FF0C5
:1001500000070023F0E80256083C85EA010586EA1C
:10016000010685FA47F5A3FA87F586FA47F6A5FA58
:1001700087F68EB9EED1F0BC01F0FF0102F0070264
:1001800032B110F8013B013A83EA010313B1F8D10F
:100190000020704701387047002D06BF35460338F0
:1001A000073815F0010F07D1013015F4807F02BF29
:1001B000013015F4C03F0130F0BC0138704700BF7A
:1001C0002DE9F04385B005460C464FF47A720023C2
:1001D00049F048F991464FF47A72002328462146A7
:1001E00049F040F93C22002349F03CF990464EF694
:1001F000602200232846214649F034F93C2200239E
:1002000049F030F91746144A00232846214649F0A0
:1002100029F91822002349F025F916460CA3D3E941
:1002200000232846214649F01DF903460B4CCDF822
:100230000C90CDF8088001970096094A6421204669
:1002400018F060F8204605B0BDE8F083AFF30080F9
:10025000005C26050000000080EE36009825002096
:10026000BC500600000000002DE9F04F2DED028B80
:1002700091B082460C4693461D46DDE91C2310468C
:10028000194648F017FF002800F007814FF0FF32B1
:10029000B14BDDE91C0148F035FF002840F0FD803E
:1002A0004FF0FF326FF48013DDE91C0148F00CFFC2
:1002B000002840F0F28000220023DDE91C0148F014
:1002C00003FF002840F0FE809DED1C7B8DED067B3A
:1002D000209B13F480630F9301D106231E93DDE965
:1002E00006010246C1F30A50C1F31303904643F0DE
:1002F0007F5949F44019A0F2FF3048F009FC84A36B
:10030000D3E9002348F06EFC83A3D3E9002348F02F
:10031000B3FA06460F460022904B4046494648F045
:10032000A9FA7FA3D3E9002348F05CFC02460B4600
:100330003046394648F0A0FA48F0EEFE064648F04E
:10034000E7FB8046894678A3D3E9002348F04AFCBE
:100350000022834B48F090FA48F0DEFE074674A373
:10036000D3E900234046494648F03CFC8046894694
:10037000384648F0CDFB70A3D3E9002348F032FCA7
:1003800002460B464046494648F074FA8046894684
:1003900002460B4648F026FCCDE90A0107F2FF377A
:1003A00000210022CDE908123B05099300230893A0
:1003B00042464B464046494648F05EFACDE90C01BC
:1003C00042464B4600204FF0804148F053FA8046A9
:1003D00089460022634BDDE90A0148F02DFD002229
:1003E000614B48F049FA02460B46DDE90A0148F044
:1003F00023FD00225D4B48F03FFA02460B46DDE943
:100400000A0148F019FD02460B464046494648F0AD
:1004100033FA02460B46DDE90C0148F00DFD0022DF
:10042000534B48F029FADDE9082348F0DBFB80460E
:10043000894649EC188BDDE9062348F063FE40B19C
:10044000013E0022484B4046494648F0F5FC41EC4D
:10045000180B06F16303C62B3FD80427209B13F427
:10046000006F44D036A3D3E90023DDE90689404676
:10047000494648F03DFE00283FD033A3D3E900238E
:100480004046494648F020FE002836D01E9BB34225
:1004900025DD9E1B731E1E9323E0209B04931F9B50
:1004A00003931E9B02939DED1C7B8DED007B2B46E1
:1004B0005A462146504600F0CFF811B0BDEC028BF1
:1004C000BDE8F08F9FED227B8DED067B1C9B069394
:1004D0001D9B03F100430793FAE60527BEE70023BF
:1004E0001E93209B43F48063209300273E461F9B6E
:1004F0009F423FD2A3EB07083EE01E9B002BF6D0A5
:100500000F9B002BF3D01E9B013B1E93EFE700BF18
:10051000FB799F501344D33FB3C8608B288AC63FF2
:1005200061436F63A787D23F71A379094F930A4054
:100530001655B5BBB16B0240EF39FAFE422EE63FCD
:100540002D431CEBE2361A3F0000000080842E4150
:100550000000000000000000FFFFEF7F0000F83FF8
:100560000000E03F00002C40000024400000184044
:100570000000F03F4FF00008209B13F0020902D06A
:100580000FB14FF000083EB153EC182BDDE9060126
:1005900048F052FCCDE9060100220023DDE91C01F0
:1005A00048F092FD00283DD1209B23F40063049382
:1005B000CDF80C801E9B02939DED067B8DED007B9C
:1005C0002B465A462146504600F046F8002F3FF48D
:1005D00074AF209B13F0200F2CD04FF0450C00F18E
:1005E00001082B46024621466046D04786EAE6735C
:1005F000A3EBE67305220592013F049700220392C4
:100600000A220292F00F019000932B4642462146A7
:10061000504652F09DF8B9F1000F3FF44EAF02463C
:100620001F9F10E0DDE90601024601F10043CDE91C
:100630000623B9E74FF0650CD1E7561C2B4621463F
:100640002020D0473246A2EB0B03BB42F5D3104625
:1006500033E700BF000000002DE9F04F2DED028BC5
:1006600095B007900A9192469B46DDE92089229D2C
:1006700042464B464046494648F01CFD002840D0C3
:100680004FF0FF326FF480134046494648F01CFD9E
:10069000002845D14FF0FF329F4B4046494648F075
:1006A00031FD00284BD198A3D3E9002340464946A9
:1006B00048F028FD00285AD195A3D3E900234046ED
:1006C000494648F001FD002851D100220023404650
:1006D000494648F0F9FC002857D100230B93249B8E
:1006E00013F4806F5CD000241F2C5BD8092D59D9DE
:1006F00004F150036B44302203F8202C013D0134F7
:10070000F2E7249B0393239B029303230193834BE0
:1007100000935B4652460A99079851F03EFF2CE140
:10072000249B0393239B0293042301937C4B00930C
:100730005B4652460A99079851F02FFF1DE1249B12
:1007400013F004030FD0774A7BB10423249903915B
:1007500023990291019300925B4652460A990798A9
:1007600051F01BFF09E1704AEEE70323EEE7249BFB
:100770000493239B03930295CDE900895B4652467F
:100780000A990798FFF770FDF7E042464B460020B4
:10079000002148F06FF88046894601230B939EE7BD
:1007A0000625A0E74046494648F0B6FC064648F014
:1007B000AFF902460B464046494648F05BF85B4BB2
:1007C00003EBC50393ED008B53EC182B48F00AFAAA
:1007D00002460B46CDE9082348F0C6FC074648F020
:1007E00087F902460B46DDE9080148F043F8024666
:1007F0000B46CDE9082300224D4B48F083FC50B353
:100800000137384648F074F902460B4651EC180B94
:1008100048F064FC08B10136002755BB304648F06B
:1008200077F902460B464046494648F023F807460A
:10083000884600223E4B48F047FC38B100223C4B32
:100840003846414648F05EFC002842D016F0010FC1
:100850003FD001363DE00022354BDDE9080148F08C
:1008600033FC0028D9D117B117F0010FD5D00137CB
:10087000D3E71F2C17D8013D2E4BA3FB0723DB0822
:10088000194603EB8303A7EB4303621C303304F1E7
:1008900050000DEB000404F8203C092F02D90F464C
:1008A0001446E6E714461F2C0AD86B1E45B104F126
:1008B00050026A44302102F8201C1D460134F2E740
:1008C0001F2C06D804F150036B442E2203F8202C71
:1008D00001341F2C33D8184A82FB0632F317C3EBBE
:1008E000A2031A4603EB8303A6EB4303611C3033D8
:1008F00004F150000DEB000404F8203C1646EAB168
:100900000C46E6E7AFF300800000000065CDCD4166
:100910000000000065CDCDC1FFFFEF7F647A0600C7
:10092000687A06005C7A0600587A0600707A06003B
:100930000000E03FCDCCCCCC676666660C46249BBD
:1009400003F00303012B1DD01F2C09D80B9B002B98
:1009500035D004F150036B442D2203F8202C0134D0
:10096000249B0393239B029301940CAB00935B465F
:1009700052460A99079851F010FE15B0BDEC028B53
:10098000BDE8F08F239BB3B10B9B1BB9249B13F0E5
:100990000C0F12D0239B013B2393194606E004F170
:1009A00050036B44302203F8202C01348C42CBD20C
:1009B0001F2CF4D9C8E72399F8E72399F6E7249B7D
:1009C00013F0040F07D004F150036B442B2203F8FB
:1009D000202C0134C4E7249B13F0080FC0D004F18D
:1009E00050036B44202203F8202C0134B8E700BFE9
:1009F000F0B5A9B02C2200211DA862F0EAFE844DBA
:100A00004FF002331F9340F20B13ADF89C300FCD23
:100A100014AC0FC40FCD0FC42B6823607D4B07931C
:100A20007D497E487E4D0023CDE908330A931BF0B3
:100A3000BBFE2860002800F0CA8052F0AFFC794E5F
:100A40003070286852F0ACFC774B4FF001111870F1
:100A5000286853F000F80446002840F0B280377848
:100A6000724E002F40F094800027714821F0E0FD85
:100A70003060002800F0AD80C189286800221BF09A
:100A800007FF28680122032152F0ABFE3368586843
:100A900021F082FE0446002840F09380654B6649B1
:100AA000D3F8F020D3F8F430CDE9042304AB03935A
:100AB000072213F8010B5054013AFAD20622FF2103
:100AC0000BA862F086FE0622FF210DF1320062F0D3
:100AD00080FE182200210EA862F07BFE08220EA9DB
:100AE00003A862F04EFE41F234231C22002120A80C
:100AF000ADF82C3062F06DFE28681DA949F09CFD10
:100B0000044600285DD14D49286852F026FF04466E
:100B1000002856D14A49286852F009FF04460028A7
:100B20004FD1484928681BF03FFF0446002848D1B0
:100B300035A3D3E90023CDE90023286852F00FFF45
:100B4000044600283DD102463F49286840F6FC7320
:100B500052F08AFF3D4A3E49286852F087FF04461A
:100B600000282ED101201BF045FE00282FD0394A45
:100B7000A023D380384A07A8136004F0CDFC374B7C
:100B8000186000282FD1364B364A40F2164127E034
:100B9000354821F04DFD306000283FF465AFC18934
:100BA000286822461BF074FE28680122032152F0B7
:100BB00018FE3368586821F0EFFD044600283FF422
:100BC00054AF2A4A23462221022053F078F929B053
:100BD000F0BD002F7FF462AF254B224A40F2CA31AC
:100BE000244848F0C1FD244814AA214604F072FDAF
:100BF000224B18600028EAD1214B1A4A40F21B41CF
:100C0000EEE700BFAFF30080088D01C10340000094
:100C100040B90600EEB306004D2502001C1200206C
:100C20009C5A0020979F0020969F0020485A002041
:100C3000D74A05000081E00F8A9F0020FABA06001B
:100C4000FCBA0600A05A0020E06A00208E140020A2
:100C5000BC5A002030120020745A0020D46A0020B0
:100C60001BB40600E8B90600C14A050046B40600F8
:100C700003B4060067AF0600D52D0200DC6A002031
:100C800036B40600000000002DE9F341504A514EF1
:100C900004462221102053F012F918224E48214612
:100CA00062F06FFD00220023CDE9002330680022AE
:100CB0004FF4007352F053FE002840F08280474BFF
:100CC000474C1B78A3B9474821F0B2FC2060D4F808
:100CD0000080B8F1000F1AD1434A0220222153F0BC
:100CE000EEF8424B02221A70212002B0BDE8F081DA
:100CF0003F4B1A883F4B53F822203F4B1A603F4B23
:100D000019889368242202FB01332360DFE73C4B00
:100D1000C3F80080384B1F6837B1F96800232420DE
:100D20008B4208D1002525E0364B374A374840F240
:100D30009A6148F019FDBD6800FB0355EA695278D5
:100D4000120912F00E0F3AD0052A38D8E989306816
:100D5000256000221BF09CFD30680122032152F027
:100D600040FD2368586821F017FD294B93F90000D6
:100D700021F09AFC14A3D3E900233068CDE90023C5
:100D800052F0EDFDBB68AB4213D0D98930682360C7
:100D900000221BF07DFD30680122032152F021FD6D
:100DA0002368586821F0F8FC194B93F9000021F0F2
:100DB0007BFCC4F8008021F0CFFB002095E70133D5
:100DC000AEE7012091E700BF088D01C1034200009A
:100DD0004FB806009C5A0020785A0020C0BF00205F
:100DE000485A0020E92402006BB80600949F0020B6
:100DF000FC9E002014100020445A0020FA9E00207F
:100E0000285A0020A7B8060064B9060067AF06009C
:100E10003816002010B5054C237833B9044B13B1B4
:100E20000448AFF300800123237010BDD0240020BC
:100E3000000000003C34070008B5034B1BB1034918
:100E40000348AFF3008008BD00000000D424002058
:100E50003C340700A3F5803A704700BF174B002BC6
:100E600008BF134B9D46FFF7F5FF00218B460F4649
:100E70001348144A121A62F0ACFC0E4B002B00D03F
:100E800098470D4B002B00D098470020002104000C
:100E90000D000D48002802D00C48AFF3008048F048
:100EA000AFFC2000290049F016FC48F083FC00BF8D
:100EB00000000800000000000000000000100020FA
:100EC000A820002014C00020000000000000000046
:100ED00008B5074804F066FB064B186000B108BD72
:100EE000054B064A40F2AF11054848F03DFC00BFF3
:100EF0002C500600EC2400202C3C06001C50060060
:100F00004C3C060008B54FF0FF31064B18684AF01C
:100F1000DEF800B908BD044B044A4FF4DA71044806
:100F200048F022FCEC240020583C06000850060043
:100F30004C3C060008B5064B18684AF0FEF800B9AC
:100F400008BD044B044A4FF4DD71044848F00CFC22
:100F5000EC240020943C0600F44F06004C3C0600B4
:100F6000F0B5B5B00AAF07F1430053F0FCF8C8B9CB
:100F700097F843104E4817F099F997F843306A46AE
:100F8000A2EBC3039D460AAD294607F1430053F087
:100F9000FFF8044678B997F84310464817F086F9E9
:100FA00000241BE00446444800F0EEFEA1B2434892
:100FB00017F07CF9DCE7404800F0E6FEA1B24048BB
:100FC00017F074F9E7E73C4800F0DEFE07F1440152
:100FD0003C4817F06BF95EE00134E4B297F8433017
:100FE0009C4262D2EB79AA792146374817F05EF924
:100FF000391D284653F0E5F8796A344817F056F958
:10100000B96A334817F052F9F96A324817F04EF9C5
:10101000396B314817F04AF9B98F304817F046F963
:10102000F98F2F4817F042F997F84110AE392D4843
:1010300017F03CF997F84010AE392B4817F036F905
:1010400097F8403097F84120F98FB88FAE7995F82E
:1010500007C0CDF824C008960794FE6A06963E6B3A
:10106000059604900391AE3A0292204A01923222F0
:101070000092AE3B1E4A4FF4806107F1440017F026
:1010800041F907F1440281B21A4B186852F0D1FFBE
:101090000646002897D0002E9ED0074800F074FE28
:1010A000B1B2154817F002F996E7AC37BD46F0BD6E
:1010B000003D0600483D060048410600C43C0600CD
:1010C000143D0600483E06005C3D0600783D0600E3
:1010D000883D0600983D0600B83D0600D83D060054
:1010E000E83D0600F83D06000C3E060024250020E1
:1010F000203E060018250020743E0600F0B59DB085
:1011000000F12005C68BAB1913F8017C002F40F0CD
:101110000C8104462946914817F0C8F804229049EA
:10112000284662F01AFC002840F015818D4817F01F
:10113000BDF802228C4904F1240062F00EFC002864
:101140003DD06427042402228849281962F005FC56
:1011500010B90234E4B2012702228549281962F04D
:10116000FCFB10B90234E4B202270222814928199B
:1011700062F0F3FB10B90234E4B203272C440222DC
:101180007D49204662F0E9FBD8B103227B49204625
:1011900062F0E3FB002853D005227949204662F033
:1011A000DCFB002800F08A8004227649204662F0A9
:1011B000D4FB002840F0CF80FFF7D2FECBE006241E
:1011C000C1E7714B53F82730186801F081FB48BB29
:1011D00039466E4817F06AF800976D4B6D4A4FF428
:1011E000806103A817F08EF884B2674B53F827305C
:1011F000186801F0F5F9684D2A6803A9674817F0E7
:1012000055F803AA2146286852F013FF0446002827
:1012100000F0A180624800F0B7FDA1B2614817F06C
:1012200045F898E03946604817F040F80097584B69
:101230005E4A4FF4806103A817F064F884B2DAE7DD
:10124000514B53F82730186801F042FB40B3394640
:10125000574817F02BF800974D4B564A4FF48061D2
:1012600003A817F04FF884B2474B53F8273018689B
:1012700001F04CFA484D2A6803A9484817F016F8BF
:1012800003AA2146286852F0D4FE0446002862D002
:10129000434800F079FDA1B2424817F007F85AE040
:1012A0003946454817F002F80097394B434A4FF446
:1012B000806103A817F026F884B2DBE7324B53F8BD
:1012C0002730186801F004FB08B339463C4816F093
:1012D000EDFF00972E4B2F4A4FF4806103A817F0C3
:1012E00011F884B22C4D2A6803A92C4816F0DEFFB1
:1012F00003AA2146286852F09CFE044658B32848A9
:1013000000F042FDA1B2274816F0D0FF23E0394695
:101310002C4816F0CBFF00971D4B264A4FF48061F6
:1013200003A816F0EFFF84B2DCE73146264816F03A
:10133000BDFF002401E00134A4B2B44207D22A5D0B
:101340002146224816F0B2FF2B5D002BF3D1214637
:101350001F4816F0ABFF1DB0F0BD00BFAC3E06004D
:10136000C83E0600D03E0600E03E0600E43E060011
:10137000E83E0600EC3E0600F03E0600A43F0600F4
:10138000F83F06002C40060034100020F43E060012
:1013900024250020003F060094250020443F06003D
:1013A000484106006C3F0600103F0600283F06003B
:1013B000A83F0600B43F0600C43F0600DC3F06001D
:1013C0000040060014400600344006005840060065
:1013D0006440060070B588B00446FFF793FDA3781B
:1013E000813B0B2B00F28880DFE803F00D3086860E
:1013F000868686091886062BA268434B1A70FFF76B
:1014000099FD08B070BD6368404C2360404800F00F
:10141000BBFC21883F4816F049FFF0E763683BB901
:101420003B4800F0B1FCA1683B4816F03FFFE6E7FF
:10143000374800F0A9FCA2686168384816F036FF0A
:10144000DDE7A168364816F031FFD8E7354816F0D9
:101450002DFF354B0FCB8DE80F00E06821696269E5
:10146000A36949F01FF988B3294800F08DFC2F4883
:1014700016F01CFF2E4816F019FF2E4D2E4E29682F
:10148000304616F013FFA168304616F00FFFA26831
:101490002B689A420FD0294816F008FFE18B2848A4
:1014A00016F004FF2046FFF729FE04F1200125482D
:1014B00016F0FCFEA3E7244816F0F8FEE18B204866
:1014C00016F0F4FE2046FFF719FEEEE704A904F13A
:1014D0000C0000F0A3FD0E4800F056FCE38B0093D7
:1014E000A368A28B04A9194816F0E0FE04F12001BC
:1014F000174816F0DBFE82E7054800F045FCA178AE
:10150000144816F0D3FE7AE7249F0020042500201B
:101510004841060078400600A4400600C44006008A
:10152000F440060018410600F0240020284106007F
:1015300034410600002500204C4106007C41060095
:101540006841060094410600544106009C41060093
:10155000D8410600DC41060030B587B0054606A834
:1015600000E90E000C4629B1012C12D0022C1CD02F
:1015700007B030BD9DF812309DF813200192009302
:101580009DF811309DF8102029460F4816F08EFE68
:10159000EAE79DF8113000939DF812309DF8102075
:1015A00029460A4816F082FEE0E79DF816309DF8BD
:1015B000172001920093BDF81430049A294604487C
:1015C00016F074FED4E700BF004206005042060049
:1015D000A042060010B54AF020FD444B18600022DE
:1015E0005A60434816F062FE4249012052F0AAFCBC
:1015F000002840D14049022052F0A4FC04460028B3
:1016000043D13E49002052F0BEFC0446002844D19C
:1016100040F2D2423849394B186852F0CAFC0446AD
:10162000002842D13649002052F0ADFC0446002883
:1016300043D140F2D3422F49314B186852F0D9FCC4
:101640000446002841D12F49002052F09CFC04465A
:10165000002842D140F2D44227492A4B186852F060
:10166000A8FC044678B1224800F08EFBA1B22648BF
:1016700016F01CFE07E004461D4800F085FBA1B2F1
:10168000224816F013FE204610BD194800F07CFBDE
:10169000A1B21F4816F00AFEF5E7154800F074FBEA
:1016A000A1B21C4816F002FEEDE7114800F06CFBF9
:1016B000A1B2194816F0FAFDE5E70D4800F064FB09
:1016C000A1B2164816F0F2FDDDE7094800F05CFB18
:1016D000A1B2134816F0EAFDD5E7054800F054FB27
:1016E000A1B2104816F0E2FDCDE700BF182100209E
:1016F0004841060008250020F0240020182500207D
:1017000000250020942500209C4406001443060078
:101710004C4306008C430600C0430600F843060015
:1017200030440600684406002DE9F04FC3B0FFF7CF
:10173000CFFB824B0093824B824A8349834816F049
:10174000B5FD83480BF07EFC0146824816F0AEFDE5
:10175000042000F0E3FA00F035FC7F4BD3F8008062
:10176000404600F0D3FF7D4BD3F80090484600F090
:10177000CDFF4FF47A7049F0C0FB404601F05CF8B1
:10178000484601F059F84FF47A7049F0B6FB4046EC
:1017900000F0BCFF724816F089FD724B44F62062DF
:1017A0001A600BF0A1FB0BF02BFC6F4A0BF08CFCCA
:1017B0006E4800F0E9FA6E4A40F27D21022052F0B4
:1017C0004EFC002850D100246A4A40F2B321062082
:1017D00052F05CFC0546002850D1674AF5210120F3
:1017E00052F06BFC0546002852D1644852F026FDA9
:1017F0000546002856D1002052F00DFD0546002870
:101800005AD1132052F070FC054600285ED15C4D81
:1018100000232B6005232B7102236B710323AB7113
:10182000FFF770FB2946574852F056FB0546FFF775
:1018300081FB002D54D1002C5DD1514B0ECB514872
:10184000FFF78AFE0BF0DCFB4F4A0BF03DFC4F4CE0
:10185000204652F05CFC2378012B51D14FF47A766C
:101860003C2500246427A6E10446404800F08CFA99
:10187000A1B2474816F01AFD0124A5E73B4800F045
:1018800083FAA9B2434816F011FD0134E4B2A4E78B
:10189000364800F079FAA9B23F4816F007FD013446
:1018A000E4B2A2E7314800F06FFA29463B4816F04F
:1018B000FDFC0134E4B29EE72C4800F065FAA9B2C1
:1018C000374816F0F3FC0134E4B29AE7274800F0F9
:1018D0005BFAA9B2334816F0E9FC0134E4B296E7AA
:1018E000224800F051FA2A4626492F4816F0DEFC1D
:1018F0000134E4B29FE721462C4816F0D7FC9CE760
:101900002B4816F0D3FC012221782A4816F0CEFC91
:10191000294B196819B9264816F0C8FCFEE789B2A8
:10192000264816F0C3FC264816F0C0FC254816F0E1
:10193000BDFC254816F0BAFCEDE700BF20450600C7
:10194000D4440600E0440600E8440600F0440600E3
:1019500040420F002C450600305906004859060049
:10196000544506001C250020202100204841060087
:10197000744D0600C84906007C4C06006849060004
:101980008825002098460600E0200020249F0020A3
:1019900064450600A0450600D8450600104606002E
:1019A0003C4606006C460600A8460600C8460600EF
:1019B0000047060020470600042500205047060087
:1019C00078470600A4470600EC470600A34800F04D
:1019D000DBF99AF800203946A14816F067FC9AF81E
:1019E00000309FB2052B7AD99E4B1B78052B40F017
:1019F000F880404600F0F4FD484600F0F1FD02207A
:101A000000F08CF90421102000F0A6F904210B202D
:101A100000F0A2F904211A2000F09EF904210C2004
:101A200000F09AF9904B1D68904BA3FB0535C5F368
:101A300047158F4A8F4813685268016840685B1ADF
:101A400062EB00028C490B604A60FFF7C3FD40A8BF
:101A500052F071FB9DF80731884C00939DF80631D8
:101A6000874A4FF48061204616F04CFC854BD3E941
:101A70000A01CDE90A01D3E90801CDE90801D3E95A
:101A80000601CDE90601D3E90401CDE90401D3E95A
:101A90000223CDE902237C4B009323467B4A4FF47B
:101AA000806127A816F02EFC84B227AA2146784B25
:101AB000186852F0BEFA0646002847D0002E4DD1D5
:101AC00027AA2146734B186852F0B3FA044600283F
:101AD0004CD0002C52D14FF4FA76002481E06E4AAB
:101AE00002EBC3026D4BD3E900010BF0EDFA9AF85B
:101AF0000030002B3FF478AF674A4FEAC30A02EB8D
:101B0000C30152F833004968013B02EBC30C52F8A1
:101B10003330DCF804C0C01A4FF47A724FF000037F
:101B200061EB0C0147F09EFCDFF858B1DA44CAE9DA
:101B300000014A4800F028F94A4B19780BEBC10B19
:101B4000DBE90023564816F0B1FB4DE7434800F0AF
:101B50001BF927A9534816F0A9FBAFE73F4800F04F
:101B600013F9B1B2504816F0A1FBA9E73B4800F0C9
:101B70000BF927A94D4816F099FBAAE7374800F062
:101B800003F9A1B24A4816F091FB4FF4FA7600240B
:101B900027E0484816F08AFB30E0304800F0F4F8BF
:101BA000304649F0AAF9FFF7C5F9434A13683344B0
:101BB00013600134A4B2FFF7A5F90BF021FA8246B5
:101BC0008B46364BC3E900AB294A0BF07DFADFF8B0
:101BD00094A0504652F09BFA9AF80030BB427FF432
:101BE000F5AE204B1B78052BD3D0344816F05EFBA6
:101BF000404600F021FE484600F01EFE94FBF5F33F
:101C000005FB1343002BCBD1164B1B78052BC4D1FE
:101C1000224B18680BF016FA1F4B9B6AA0EB030AC5
:101C20000DF1370052F09FFA0DF1380B5946244858
:101C300000F0F4F950460021FEF7C2FACDF808B0E2
:101C40000190114B00930D4B1E4A4FF4806127A861
:101C500016F058FB1C4816F029FBA1E74841060086
:101C600040480600249F00201C250020D34D621010
:101C70001021002020210020A82000202425002061
:101C800084480600B0200020E84406009048060082
:101C90001825002094250020E02000201821002095
:101CA00058480600C4480600743E0600E84806008E
:101CB0006C3F06000C49060020250020247A06000F
:101CC00008250020104906003449060000B58BB0F5
:101CD0002422002101A861F07CFD0B4B01934FF4FD
:101CE000A05306931823079301AA0021074803F085
:101CF000F1FC10B10BB05DF804FB054B054A4D211A
:101D0000054847F031FD00BF3C5006002917000090
:101D100044500600685006005850060010B50446AE
:101D200080204AF096F90146002306E001EB4302C9
:101D300001F8133054700133DBB2222BF6D9232083
:101D400052F0A3F8044602462321024816F0AEFAE8
:101D5000204610BD7450060070B582B005460E4690
:101D60008DF804008DF8051001A9012052F08DF8BE
:101D70000446034632462946024816F097FA2046A2
:101D800002B070BD9C50060010B582B004460BF046
:101D900037F96A460BF098F92146094816F086FA99
:101DA000084A009813685268C01A019961EB020151
:101DB000FEF706FA0146044816F078FA02B010BDA4
:101DC0003049060020210020E050060038B501F01F
:101DD000EDFD01210D4801F057F9012211460020C7
:101DE00001F038FD0A4C0225C4F88050012211464A
:101DF000002001F02FFDC4F884500122114600207C
:101E000001F028FDC4F88850002038BD30253E0080
:101E100000400E4008B5264B01225A64254BD3F8EA
:101E2000FC301B0E0DD1244A4AF6E851C2F890113D
:101E3000D2F8981141F00401C2F898110021C2F8BB
:101E40009011012B2BD91D4A136A23F4441343F438
:101E500088131362A2F58042136843F48073136001
:101E600002F54052D2F8A43143F4F843C2F8A43149
:101E70000AF0C8F900F060F90AF066F90AF074F99E
:101E80000AF0ACF9FFF7A2FF49F096FF00F048F91D
:101E900000F0F2FF49F013F803F0D0FA08BD064A4B
:101EA000D2F8643143F40053C2F86431CBE700BF89
:101EB00000000E400081E00F00300E4000400E4058
:101EC00010B598B02A4C0DF1440CA646BEE80F00A0
:101ED000ACE80F009EE807008CE8070000230B9396
:101EE0000C930D930E930F931093224A0B92224A58
:101EF0000C924FF0010E8DF837E002228DF8392058
:101F000003228DF83B201E228DF83F208DF84020C3
:101F100009AA1C3494E8030082E803000DF10C0CBC
:101F20000393049305930693079308938CE80300A7
:101F30000C238DF814300D238DF815300F4B0693BC
:101F4000202307938DF820E08DF821E00C4B0093BF
:101F50000BAB11AA61460B480AF0D2FD044610B93A
:101F6000204618B010BD8521074848F0A7FDF7E7C7
:101F70000C5906000000014000420400A426002085
:101F8000FC250020C4260020DC58060008B5FFF719
:101F900097FF00B908BD9721014848F08FFDF9E788
:101FA000DC58060008B502480AF070FE08BD00BF04
:101FB000C426002008B502480AF068FE08BD00BF2C
:101FC000C426002008B5064848F0A0FD054848F0A2
:101FD0009DFD054848F09AFD044848F097FD08BD6E
:101FE0003059060048590600605906007859060025
:101FF00010B402EB010C5358DCF804404BB15818F4
:1020000044602360044B5350CCF804305DF8044B1B
:1020100070474460F5E700BFEFBEADDE2DE9F84341
:102020000F46024600240125FF2607E01346ACEBCD
:102030000402AA421BD8644601341A46072C1AD857
:10204000134613F8021B527852EA0122F4D104F12C
:10205000010CBCF1070FEAD81A4612F8021B5B7894
:1020600053EA0123E2D10CF1010C1346F1E71546C6
:1020700026466446E0E73C464FF000080BE0B8F126
:10208000000F02D13A2304F8013B3A2304F8013B44
:1020900000EB4500A844B8F1070F18D84645EED02C
:1020A000814619F8022B437808F1010843EA02221D
:1020B0000949204616F010F90444B8F1080F04D07D
:1020C0003A2304F8013B4846E5E74846E3E70023A6
:1020D0002370E01BBDE8F8839059060070B584B00A
:1020E00000230093019302930393802902D90020D7
:1020F00004B070BD0D4616460A460146684648F0D3
:102100007EFB31466846FFF789FF34182A460349AB
:10211000204616F0E1F82044801BE9E794590600B8
:1021200008B50121034800F0AFFF48F0E1FA00F0E4
:102130002BF808BD00350A0008B50121014800F060
:10214000A3FF08BD00350A0000B583B002218DF859
:1021500000100022054848F054FC01900821684610
:1021600048F05BFC03B05DF804FB00BF00D4300016
:10217000014B1022DA60704700A00044014B10228E
:10218000DA60704700A0004670B588B00DF1040C0D
:10219000374C0FCCACE80F0094E807008CE8070040
:1021A0000121344800F070FF334E0121304600F029
:1021B0006BFF01258DF81250304B0393304C01A971
:1021C000204603F02BF82B4604220621022002F0C1
:1021D0009BF900232A460721022002F095F92B469D
:1021E00004220821022002F08FF92B460422114616
:1021F000002002F089F9234BA3670B2363674FF498
:1022000048700BF06BF9FFF7B3FF14200BF066F981
:10221000FFF7B4FF23200BF061F9FFF7A9FFB92105
:10222000204648F03AFEFFF7A9FF00231A46062190
:10223000022002F069F900231A460721022002F069
:1022400063F92B4600220821022002F05DF92B469B
:1022500000220421104602F057F9204602F036FF12
:102260000021A1676167304600F00EFF08B070BD25
:102270009859060000350A000052040000127A0046
:10228000000401400B0B000B08B500F087F8124A60
:102290000AE01068516850F8230041F82300013328
:1022A00091688B42F5D30C320C4B9A4201D2002339
:1022B000F6E70B4A08E01168002041F823000133DB
:1022C00051688B42F7D30832064B9A4201D2002361
:1022D000F6E7FEF7C3FD00BF4434070050340700A3
:1022E00050340700503407000048704700F049029E
:1022F000114BD3F8943003F00703023B032B0DD8A6
:10230000DFE803F0050F02080C4B18680BE00C4BDC
:10231000186808E00B4B1868400804E0094B18687F
:1023200001E04FF40040044BD3F80031C3F3042321
:102330000133B0FBF3F0704700400E405010002016
:10234000481000204C10002008B5FFF7D1FF054BC6
:10235000D3F80831C3F308230133B0FBF3F0024B89
:10236000186008BD00400E4044100020014B186862
:10237000704700BF4810002008B5064B1860064B98
:10238000D3F8943003F00703022B00D008BDFFF709
:10239000DBFFFBE74810002000400E40044B054ADD
:1023A0009A60D3F8882042F47002C3F888207047FE
:1023B00000ED00E000000000014B1868704700BF0E
:1023C0005010002038B504460D4621B118B12368DD
:1023D0002B60256038BD3721014848F06FFBF6E7D8
:1023E000B459060038B504460D4601B128B9452157
:1023F000054848F063FB00E01C462368002BFBD136
:102400002B60256038BD00BFB459060010B50446E6
:1024100030B1206818B1036823600023036010BD49
:102420005621024848F04AFBF3E700BFB4590600C2
:1024300038B504460D4601B128B97821094848F05D
:102440003DFB00E01C46236823B1AB42FAD12B6868
:10245000236038BD002CFCD18121024848F02EFBBE
:10246000F7E700BFB45906000346064A1068034464
:10247000054A934202D8034A136070474FF0FF3079
:10248000704700BF541000200000042008B501214F
:10249000294800F0F9FD012304220221052002F061
:1024A00033F8002002F01AF80121244BC3F8101869
:1024B0000A46042001F0CEF9214800F0FFFF214B2D
:1024C000D3F8F02042F00102C3F8F020D3F8FC204A
:1024D00042F08072C3F8FC20A3F55D431A4A1A60EB
:1024E00000F5D52000F2FC40C008184BA3FB0030DB
:1024F000800A0138164B18610222C3F8F0204FF40D
:102500008072C3F804234FF06043124AC3F8B02F1F
:10251000114AC3F8802ED3F8002E42F48072C3F81B
:10252000002EFF2283F82020D3F8002E22F48072A0
:10253000C3F8002E002008BD00350A0000801442B8
:1025400006000E0000ED00E0FF0300401791650259
:10255000000004E055CEACC5090001004FF0604317
:10256000D3F8803E13F0010F01D1112070470E4ABD
:10257000D2F8FC3043F08073C2F8FC304FF0604377
:10258000D3F8002E4FF0010C0CFA00FC42EA0C02CA
:10259000C3F8002E53F82030002BE8D04FF06043F2
:1025A00003F820100020704700ED00E010B504464D
:1025B0000121094800F068FD0121084800F064FD90
:1025C000A378B3FA83F35B0904226178207801F0E1
:1025D0009BFF002010BD00BF4041050000350A00F0
:1025E00038B58378002B45D104784578BCB1012CEF
:1025F00023D0022C24D0032C25D0042C26D0052C4B
:1026000026D0062C27D0072C27D0082C27D0092C21
:1026100027D00A2C01D0002303E0072301E040F279
:10262000FF33EB4013F0010F1ED004EB44042401F0
:102630000122AA40324B1A5138BD4FF6C073F0E761
:1026400040F6FF73EDE74FF47F43EAE70023E8E746
:102650004FF6FF73E5E70023E3E70023E1E70F23ED
:10266000DFE74FF44043DCE740F2FE31254848F015
:1026700025FADAE704784578BCB1012C23D0022C86
:1026800024D0032C25D0042C26D0052C26D0062CB3
:1026900027D0072C27D0082C27D0092C27D00A2C8C
:1026A00001D0002303E0072301E040F2FF33EB40B9
:1026B00013F0010F1ED004EB440424010122AA40B0
:1026C000114B1A51B8E74FF6C073F0E740F6FF73AD
:1026D000EDE74FF47F43EAE70023E8E74FF6FF73A7
:1026E000E5E70023E3E70023E1E70F23DFE74FF40B
:1026F0004043DCE740F22D41024848F0DFF9DAE7D9
:102700000CA00044045A06000CA0004638B583789B
:10271000002B45D104784578BCB1012C23D0022C84
:1027200024D0032C25D0042C26D0052C26D0062C12
:1027300027D0072C27D0082C27D0092C27D00A2CEB
:1027400001D0002303E0072301E040F2FF33EB4018
:1027500013F0010F1ED004EB440424010122AA400F
:10276000324B1A5138BD4FF6C073F0E740F6FF7395
:10277000EDE74FF47F43EAE70023E8E74FF6FF7306
:10278000E5E70023E3E70023E1E70F23DFE74FF46A
:102790004043DCE740F22D41254848F08FF9DAE765
:1027A00004784578BCB1012C23D0022C24D0032C12
:1027B00025D0042C26D0052C26D0062C27D0072C7B
:1027C00027D0082C27D0092C27D00A2C01D0002391
:1027D00003E0072301E040F2FF33EB4013F0010F69
:1027E0001ED004EB440424010122AA40114B1A51CB
:1027F000B8E74FF6C073F0E740F6FF73EDE74FF42C
:102800007F43EAE70023E8E74FF6FF73E5E700239D
:10281000E3E70023E1E70F23DFE74FF44043DCE782
:1028200040F2FE31024848F049F9DAE70CA00046D0
:10283000045A06000CA0004438B504784578BCB1B1
:10284000012C26D0022C27D0032C28D0042C29D0F0
:10285000052C29D0062C2AD0072C2AD0082C2AD0C7
:10286000092C2AD00A2C01D0002303E0072301E021
:1028700040F2FF33EB4013F0010F21D00123AB40B6
:1028800004EB4404240104F1804404F52044A361D2
:1028900038BD4FF6C073EDE740F6FF73EAE74FF43B
:1028A0007F43E7E70023E5E74FF6FF73E2E7002306
:1028B000E0E70023DEE70F23DCE74FF44043D9E7EE
:1028C0004FF48961014848F0F9F8D7E7045A060047
:1028D00070B5064604784578BCB1012C2BD0022C8B
:1028E0002CD0032C2DD0042C2ED0052C2ED0062C31
:1028F0002FD0072C2FD0082C2FD0092C2FD00A2C0A
:1029000001D0002303E0072301E040F2FF33EB4056
:1029100013F0010F26D004EB44042401144B23448C
:1029200005EBC305AD002868C0B2B37813B9B0FA9F
:1029300080F0400970BD4FF6C073E8E740F6FF73C2
:10294000E5E74FF47F43E2E70023E0E74FF6FF734C
:10295000DDE70023DBE70023D9E70F23D7E74FF4B8
:102960004043D4E74FF48361024848F0A7F8D2E728
:102970000CA01002045A0600F0B585B00C4694462F
:102980009DF83410664A1278002A00F0BD80054692
:10299000BCF1070F00F2BA800A9A002A00F0B88052
:1029A0000B9A002A00F0B6800E9AB2F5006F00F381
:1029B000B38001285BD05B4A02EB0C12127B002A29
:1029C00000F0AC8000220092019202920392564ADB
:1029D00002EB4C1E002C4FD14FEA4C1600209051B8
:1029E000CEF80400CEF80800CEF80C009EF80200E5
:1029F00040F010008EF802009EF8030040F0300016
:102A00008EF8030021B9C1B241F003018EF8031022
:102A100000930E9B013B444A4FEA4C1002EB4C11D1
:102A2000165A63F30E1616520A9B8B600B9B4B6073
:102A3000CB789DF83C2062F38303CB70012D36D018
:102A4000109B002B56D0374A4FEA0C1102EB0C13A7
:102A500010985050119A5A6000249C605D73724621
:102A60006946604601F07AFF204605B0F0BD0C9A39
:102A7000002AA0D12D48F8E72B4F4FEA4C1607EB60
:102A80004C120020B85150609060D060907840F0B7
:102A900010009070D07840F00300D0700029B7D1BA
:102AA00007EB4C12C1B241F03001D170B0E70E46D5
:102AB0000A7B42F001020A73D2B242F002020A73A8
:102AC000CA68042161F39F02F26006F1100796E8DC
:102AD0000F0087E80F00F2696FF0030161F39F02B6
:102AE000F2610C9B7361012CAAD10B9AB2610C9A12
:102AF0007260A5E7002DA6D10B4B03EB4C139A781F
:102B00006FF304129A709EE70948AEE70748ACE7F6
:102B10000648AAE70548A8E70448A6E70548A4E749
:102B2000259F0020E426002064270020018000F07B
:102B3000028000F0078000F0134B1B78FBB110B54A
:102B40000446F0B148F045F80023072B13DC0F4A88
:102B500002EB0312127B0AB10133F6E723600B4A42
:102B6000190102EB031301241C730024545048F094
:102B700036F8204602E048F032F8054810BD054816
:102B800070470548FAE700BF259F0020E426002093
:102B9000048000F0028000F0018000F038B548F0B9
:102BA00018F804460023072B06DC0C4A02EB03123C
:102BB000127B12B90133F6E7002222B1204648F019
:102BC0000EF8074838BD01F04FFE0025054B1D707B
:102BD000204648F004F82846F4E700BFE426002029
:102BE000058000F0259F00200F4B1B78BBB110B56E
:102BF0000446072815D847F0ECFF0C4B03EB0413F1
:102C00001B7B1BB947F0EBFF09480BE0074B03EBBD
:102C1000041300241C7347F0E2FF204602E005483D
:102C20007047054810BD00BF259F0020E426002006
:102C3000068000F0028000F0018000F000B583B053
:102C4000144B1B68019300238DF8043047F0C1FF3B
:102C5000114B1B7833B9104B01221A7047F0BFFF9C
:102C6000002309E047F0BBFF0C480FE00C4A02EBE1
:102C70000312002111730133072BF7DD04238DF8B4
:102C800007300DEB030001F025FE002003B05DF8D6
:102C900004FB00BF505A0600259F0020038000F06F
:102CA000E426002008B50A4B1B785BB107280BD837
:102CB000084B03EB00131B7B43B1002101F0ECFD3B
:102CC000002008BD0448FCE70448FAE70448F8E798
:102CD000259F0020E4260020028000F0018000F003
:102CE000078000F008B50A4B1B785BB107280BD8AA
:102CF000084B03EB00131B7B43B1012101F0CCFD1A
:102D0000002008BD0448FCE70448FAE70448F8E757
:102D1000259F0020E4260020028000F0018000F0C2
:102D2000078000F008B50A4B1B7853B107280AD872
:102D3000084B03EB00131B7B3BB101F0A5FE002009
:102D400008BD0548FCE70548FAE70548F8E700BF75
:102D5000259F0020E4260020028000F0018000F082
:102D6000078000F00F4B1B78A3B1072814D8A9B136
:102D70000D4B03EB00131B7B93B10C4B1B6E01221D
:102D800002FA00F0184002D00A70002070470023B9
:102D90000B707047064870470648704705487047F3
:102DA00005487047259F0020E426002000200E40A3
:102DB000028000F0018000F0078000F00C4B1B78CF
:102DC00073B110B50C4607280CD869B1094B03EB59
:102DD00000131B7B53B101F075FE2070002010BD65
:102DE000054870470548FAE70448F8E70448F6E75D
:102DF000259F0020E4260020028000F0018000F0E2
:102E0000078000F0F8B5194B1F6EDB6E1F4002D42F
:102E10000125002402E0FEE701346D00072C24D8D0
:102E20003D42F9D0114B9D662301114AD358002B26
:102E3000F2D002EB0416B1680131B160726820462D
:102E4000984780F00100C0B2737B012BE4D10028C9
:102E5000E2D0084B03EB44131A7B6FF341021A7361
:102E60001A7F6FF341021A77D6E7F8BD00200E40B3
:102E7000E42600206427002008B5034B1968034BA3
:102E8000186816F0F9FB08BD5C10002058100020EF
:102E9000B0F1FF3F01D010B97047024870470248B7
:102EA000704700BF21E000F024E000F0F8B50546CF
:102EB0000E469400224647F0E8FFFFF7E9FF074679
:102EC00028B922463146284660F04BFC08B93846FE
:102ED000F8BD014FFBE700BF10E000F038B5044635
:102EE00001F026FFFFF7D4FF054660B9084BD3F881
:102EF000E4301B0E0A3303F01F03012199402046E2
:102F000047F024FE08B1284638BD024DFBE700BF5C
:102F10000081E00F0EE000F010B582B0044601A879
:102F200001F0EAFF9DF8063023800122E270A270D2
:102F3000064BD3F8E4301B0E0A3303F01F0302FAEA
:102F400003F36360002002B010BD00BF0081E00FFA
:102F500008B547F037FE014B186008BDA42E0020CD
:102F600008B5024B186847F031FE08BDA42E0020BA
:102F70000C4B984205D90C4B984210D801210A46B7
:102F800001E000210A46094B1A64094AD2F80031CF
:102F900023F0807343EA0163C2F8003170470221D5
:102FA0000122F0E70048E8010090D0030000C84388
:102FB00000400E40014B1868704700BF7C10002095
:102FC00008B5144B5B68002300E00133042B0CD8D8
:102FD000114A02EBC30292F804C0CAB29445F4D17C
:102FE0000D4A52F833208242EFD3052B0BD00A4A08
:102FF00002EBC3035979074A536823F0407343EA4D
:103000000163536008BD41F21471044847F056FD56
:103010000321F0E700000E40C45A0600785A06006B
:1030200008B5FFF765F9044BD3F80031C3F3042367
:1030300003FB000008BD00BF00400E4038B5084B40
:103040001C6CA4B241F671351D64FFF74DF90021E7
:10305000FFF7B6FFAC4202D0014B00221A6438BD24
:1030600000000E4038B5074B1C6CA4B241F6713518
:103070001D64FFF7A5FFAC4202D0024B00221A6488
:1030800038BD00BF00000E4010B5C0F30323013B64
:10309000092B2CD8DFE803F031052B2B341E212B14
:1030A00024280024184AC0F3043054B1174BD3F835
:1030B000443113F0010F04D1144BD3F840311C42BA
:1030C000FAD102F1424303F5801300EBC300800004
:1030D000016010BD01240E4AE5E710240D4AE2E725
:1030E0004FF480340C4ADEE700240C4ADBE741F65B
:1030F000B0410B4847F0E2FCEBE70024034AD2E77B
:103100000024084ACFE700BFC0400E4000400E40F8
:10311000E0400E40E8400E40F0400E4050410E406E
:10312000785A0600B0400E4008B5C0F30313013BC7
:10313000092B7AD8DFE803F0050B111B79792127D9
:1031400046693D4BD3F80001C0F3042008BD3A4B5B
:10315000D3F81401C0F30420F8E7374BD3F800018B
:10316000C0F30060431C012098400138EEE7324B69
:10317000D3F80C01C0F30820E8E72F4BD3F808017F
:10318000C0F30820E2E72D4B984209D02C4B98421F
:103190000FD041F654612B4847F090FC0020D5E752
:1031A000254BD3F8203103F00F030120984001385C
:1031B000CCE7214BD3F82031C3F301130120984011
:1031C0000138C3E7204B98420CD003F5B01303F548
:1031D000805398420FD041F678611A4847F06EFC50
:1031E0000020B3E7144BD3F82831C3F301130120B7
:1031F00098400138AAE7104BD3F82801C0F301200A
:10320000031D012098400138A0E7104B984205D1DA
:10321000094BD3F8300100F0030097E741F68761CE
:10322000084847F04BFC002090E741F6AC610548A8
:1032300047F044FC002089E700400E40800616005D
:1032400080162E00785A060090171A00A009140064
:1032500008B500F00F000138072865D8DFE800F056
:10326000041B2A643E4D64553D4BD3F8943003F063
:103270000703023B052B0CD8DFE803F0055D0307CD
:103280000B09022056E0042054E00B2052E00C20F1
:1032900050E005204EE0324BD3F8803003F00703B6
:1032A000022B4AD0042B4AD0012B01D0012041E04F
:1032B00003203FE02A4BD3F8843003F00703013B9F
:1032C000032B09D8DFE803F0023D0604032031E0B8
:1032D0000A202FE006202DE001202BE0204BD3F820
:1032E000883003F00703022B2DD0042B2DD0012BA7
:1032F00001D001201EE003201CE0194B1B6F13F0CE
:10330000010324D02BB3092014E0154BD3F85C3112
:1033100003F03003202B1ED0302B1ED0102B01D0F9
:10332000012007E0072005E042F201210D4847F0A7
:10333000C5FB002008BD0320FCE70220FAE70A20B5
:10334000F8E70220F6E70220F4E70A20F2E7072078
:10335000F0E70120EEE70420ECE70820EAE700BFF1
:1033600000400E40785A060038B505462B4B98426F
:103370000AD02B4B984207D02A4B984204D041F6F2
:103380001301294847F09AFB2846FFF761FF0446DE
:10339000224B9D4217D0224B9D421AD0214B9D4279
:1033A00005D041F64201204847F088FB04E01F4B5E
:1033B000D3F8804004F00704042C28D8DFE804F098
:1033C000120F141C1800194BD3F8844004F00704A2
:1033D000F2E7164BD3F8884004F00704ECE747F017
:1033E00067FB0446204638BDFEF7E6FF0446F9E7D2
:1033F00047F061FB0446F5E7FEF77AFF0B4BD3F885
:103400000041C4F30064013420FA04F4EAE741F611
:103410009401054847F052FB0024E3E70300200035
:103420000500240002001E00785A060000400E40ED
:1034300008B50A48FFF70CFF072804D0092805D172
:10344000FEF756FF08BDFFF7B5FDFBE741F2D65189
:10345000034847F033FB0020F4E700BF06000E00EE
:10346000785A060010B560B904461248FFF7F0FE1E
:103470000138072815D8DFE800F01B14140E1414C7
:103480000B1141F2F6510C4847F018FB002010BD1B
:10349000FFF790FDFBE7FEF769FFF8E7FFF7C0FDD8
:1034A000F5E741F20D61044847F008FB2046EEE7DE
:1034B0002046ECE7B8003200785A060038B500F430
:1034C0007813B3F5B01F00F08880054636D8B3F501
:1034D000402F77D010D9B3F5801F00F0A080B3F54E
:1034E000A01F25D15548FFF73FFF554BD3F830318A
:1034F00003F00303D84059E0B3F5802F57D006D925
:10350000B3F5202F40F09280FEF7F2FE4EE0002B44
:103510004AD0B3F5003F40F08980FEF7E9FE484B02
:10352000D3F80831C3F308230133B0FBF3F03DE0D7
:10353000B3F5602F7AD1FFF77BFF37E0B3F5381F83
:1035400055D00ED9B3F5481F6CD0B3F5781F1DD1F7
:10355000FEF7CEFE0446284647F02FFBB4FBF0F002
:1035600024E0B3F5001F4CD006D9B3F5101F5DD190
:103570003248FFF7F9FE19E0B3F5D01F45D0B3F597
:10358000F01F53D12F48FFF7EFFE0FE0B3F5401FB8
:103590004CD12D48FFF7E8FE294BD3F82831C3F36F
:1035A00001230433D84001E0FEF7A2FE38BDFEF748
:1035B0009FFE234BD3F80C31C3F308230133B0FB38
:1035C000F3F0F3E7FEF794FE1D4BD3F81431C3F389
:1035D00004230133B0FBF3F0E8E71A48FFF7C4FE19
:1035E000174BD3F8203103F00F03D840DEE715481E
:1035F000FFF7BAFE124BD3F82031C3F30113D840C2
:10360000D4E71148FFF7B0FED0E70F48FFF7ACFE54
:103610000B4BD3F82831C3F30113D840C6E7FFF7AB
:10362000C9FCC3E70020FFF71DFFBFE74FF4EF51D0
:10363000064847F043FA0020B8E700BF0500240021
:1036400000400E4002001E0003002000785A0600D1
:10365000014B1880704700BF7C14002008B501386A
:10366000032818D8DFE800F00211070C0D4B186A88
:10367000C0F3080008BD0B4B186900F07F00F9E7A4
:10368000084B986900F07F00F4E7064BD3F89C00E4
:10369000C0F30A00EEE742F64731034847F00EFA5E
:1036A0000020E7E700400E40785A060038B50C4687
:1036B0000138032866D8DFE800F002471B31B1F576
:1036C000007F0FD2C4F30804314BD3F86838002BC5
:1036D000FAD1304A136A23F4FF7323F00103234322
:1036E000136238BD42F66C312B4847F0E7F9E9E741
:1036F0007F290DD804F07F04254BD3F86038002BC8
:10370000FAD1244A136923F07F031C431461E8E7CC
:1037100042F67931204847F0D1F9EBE77F290DD8FF
:1037200004F07F041A4BD3F86438002BFAD1194AFD
:10373000936923F07F031C439461D2E742F69431EE
:10374000154847F0BBF9EBE7124BD3F8903013F074
:10375000040F11D10F4D6B6A23F0300343F01003B7
:103760006B62C4F3C31047F022FA2A6B0B4B134071
:10377000234303432B63B4E742F6A431064847F0E2
:103780009DF9E7E742F6BE31034847F097F9A8E70D
:103790000020C84300400E40785A060000F8FF0F92
:1037A00010B50C46022810D1194B5B6A13F0300F8C
:1037B00011D0202C1CD0302C1DD0FCB142F6F131A0
:1037C000144847F07BF9144A07E042F6D631114815
:1037D00047F074F9E8E74FF440020D4BD3F890300E
:1037E00032EA0303F9D112F4800F0AD1012010BD8F
:1037F0004FF40002F1E74FF44002EEE74FF44002CD
:10380000EBE7034BD3F8A000C0F38020EFE700BF45
:1038100000400E40785A0600FF33E10710B5022839
:103820000CD129B1094B4FF48064C3F8A840596604
:103830000AB9012008E0FFF7B3FF05E042F627418F
:10384000034847F03BF9012010BD00BF00400E4087
:10385000785A06002DE9F84307468846164604289C
:1038600017D8DFE800F00F095C1C030020234FF09D
:1038700010090424052517E080234FF04009062491
:10388000072511E04FF400734FF4807908240925CF
:103890000AE042F6BB21414847F010F97BE00223E1
:1038A0004FF0010900244D46B8F1000F62D0022FFD
:1038B0003BD04FF000083A4BC3F86090394B23449B
:1038C0009B001B68002BF9D0002E64D0354C2C4493
:1038D000A4002368002BF9D0022F5CD1B8F1000FAF
:1038E00059D02F4B5B6A13F0010F3ED001222021EB
:1038F0000220FFF793FF0220FFF7B0FE05460122EA
:1039000000210220FFF7A6FF29460220FFF7CEFE86
:10391000234BC3F860902368002BFCD03BE00823C6
:103920004FF0040902240325BEE71D4B5B6A13F028
:10393000300F17D11C4BDB6B13F4806F0CD0184B7E
:103940005B6A13F0010FB6D0154A536A23F03003B7
:1039500043F010035362AEE742F6CA210F4847F026
:10396000ADF8ECE74FF00008A5E700210220FFF7D3
:1039700017FFC0E70A4A1366094BD3F890100123DA
:10398000A3401942F8D136B1054BD3F8902001235A
:10399000AB401A42F8D1BDE8F88300BF785A060060
:1039A00000400E408004F21000300E4010B5FEF7CB
:1039B000DDFC0446002100F0DBFA1A48FFF7D8FAD4
:1039C000012211460220FFF745FFFFF737FB4CB1FC
:1039D000154BDB6B13F0400F04D1144BD3F8C830F8
:1039E000002BFAD1124B02225A67FEF781FCFFF737
:1039F000BFFAFEF7A9FC0C4BDB6B13F0400F04D1B0
:103A00000A4BD3F8C830002BFAD1074B5968C1F3E1
:103A10000141FFF727FB04B110BD0121002000F098
:103A2000A7FAF9E70148E80100300E400000C6435C
:103A300000400E4070B504461120FFF709FC042831
:103A400040D0012200210220FFF704FF63781BB958
:103A5000A3780BB9E37823B142F68611204847F0EA
:103A60002DF8237C012B33D0237C022B36D000226F
:103A70001C4E736A23F001031343736222781A4BBE
:103A8000C3F8A024A288637A43EAC223F362356BA9
:103A900005F07F65E38845EAC325A37A1D43207AB4
:103AA00045EAC01547F083F805433563627BA37B85
:103AB0001B0143EA0233E27B1343227B43EA0243C6
:103AC000736370BD42F64A11054846F0F7FFB8E748
:103AD00042F68D11024846F0F1FFC5E70122C7E723
:103AE000785A060000400E400000C84338B505462D
:103AF0001120FFF7ADFB022812D0104A916B104B3A
:103B00000B402C781C436B7844EAC324AB7844EA1E
:103B10000364EB7844EA0324936BA34206D138BDD7
:103B200042F60821074846F0C9FFE6E701220021D6
:103B30000846FFF78FFE014B9C63F0E700400E4004
:103B400080E4FFF8785A0600034B5868C0F3080079
:103B5000003818BF0120704700ED00E008B5436849
:103B600023F01F030E2911D8DFE801F00808080828
:103B7000080B0B0B080808080B0B0B0019434160DE
:103B800008BD194341F010014160F9E74FF4EA71B3
:103B9000014846F093FFF3E7EC5A060070B588B091
:103BA000044616460D46C1B1236A0093236A019369
:103BB000236A0293236A0393009B2B60019B6B6033
:103BC000029BAB60039BEB60002300930193029385
:103BD0000393102E07D008B070BD40F2ED110D48D0
:103BE00046F06CFFE0E7226A0492226A0592226A9C
:103BF0000692226A0792049A2A61059A6A61069AD5
:103C0000AA61079AEA610023049305930693079338
:103C1000E1E700BFEC5A0600024B1880024B198006
:103C2000704700BF829E0020849E002008B538B1F6
:103C3000012809D040F67111054846F03FFF02E027
:103C4000044B054A9A6508BD024B044A9A65FAE797
:103C50003C5B060000300E4077402057372110B7FC
:103C600038B505460C461B02A2B101221343B3F539
:103C7000007F44D01CD8B3F5807F39D00CD940F2F6
:103C80000112934249D1294BD3F824321A0EC3F3BF
:103C900007430AE00022E9E71BB3012B3DD1234B88
:103CA000D3F82432C3F30722DBB22B60226038BD85
:103CB000B3F5407F2AD040F20132934206D11B4B2C
:103CC000D3F828321A0EC3F30743EEE740F201227D
:103CD000934222D1154BD3F82832C3F30722DBB22B
:103CE000E3E7124BD3F81C32C3F30722DBB2DCE765
:103CF0000E4BD3F81C321A0EC3F30743D5E70B4B18
:103D0000D3F82032C3F30722DBB2CEE7074BD3F858
:103D100020321A0EC3F30743C7E740F631210448A7
:103D200046F0CCFE00221346BFE700BF0081E00F43
:103D30003C5B060008B5224BD3F8303203291BD870
:103D4000DFE801F002121518DBB24AB91B0333F4A5
:103D5000704118D11B48C16E21F470411943C166EE
:103D6000012A17D0012008BDC3F30723EDE7C3F3F1
:103D70000743EAE71B0EE8E740F6B511124846F0A4
:103D80009DFE0020EFE74FF41C610F4846F096FEC1
:103D90000020E8E71B0333F4704209D10949D1F848
:103DA000EC2022F470421343C1F8EC300120DAE732
:103DB00040F6CC11044846F081FE0020D3E700BF56
:103DC0000081E00F00300E403C5B060038B5254B0B
:103DD000DD6CC5F30325244B1B8803F1280403EB9A
:103DE00054042834013505EB8503B4FBF3F4013C9E
:103DF000072C28BF0724240634F0E06325D1194A94
:103E0000D36C23F0EE631C4344F48014D464174B4A
:103E1000B3F90030002B17DB9BB203F1280403EB4E
:103E2000540428346B0803EB4505B4FBF5F4072C68
:103E300028BF0724240134F070030CD1094A136D04
:103E400023F070031C43146538BD40F62C1108485C
:103E500046F034FED3E740F64511054846F02EFE05
:103E6000ECE700BF00300E40829E0020849E0020C0
:103E70003C5B0600134B9A6922F03F020378D3B1F2
:103E800004234178C9B102210B438178B9B10821DB
:103E90000B43C178012900D000210B4301790B436A
:103EA0001343084A9361136823F44033417943EA8A
:103EB0000143136070470023E3E70021E4E700219A
:103EC000E6E700BF00300E40F8B5244BDB6B13F083
:103ED000400F2FD104460D46204BDB6B13F0400FF3
:103EE00004D11F4BD3F8C830002BFAD11B4B5B68B1
:103EF000C3F301439C421DD01A4BD3F80061C6F3B3
:103F000004260136FEF7F4F9074600FB06F6022CFC
:103F100011D0C4F1020210239340104A136145B13D
:103F2000D36B13F0400F04D10D4BD3F8C830002BE6
:103F3000FAD174B1F8BD0C4B9E4204D80221384628
:103F4000FFF790F8E5E740F25771084846F0B6FDF4
:103F5000F4E700213846FFF785F8EBE700300E4024
:103F60000000C64300400E40002D31013C5B0600BE
:103F700038B5114BDB6B13F0400F0BD10C4650B131
:103F80000E4B1B7813B10E4B98420FD921460020DF
:103F9000FFF79AFF38BD0B4BD3F80001C0F30420A4
:103FA000451CFEF7A5F905FB00F0E9E721460220D4
:103FB000FFF78AFFEEE700BF00300E40582F0020C9
:103FC000002D310100400E4010B42C4B5A6B4AF6C4
:103FD000E8515963294B9B6F13F0010FFAD1274B1E
:103FE0001B6C13F0030303D025490124C1F8B44A24
:103FF000D9B2814221D0032B00D01BB9431EDBB2C2
:10400000012B21D91D4B9B6F13F0010FFAD11B49D6
:104010000B6C23F0030303430B64184B9B6F13F0EB
:10402000010FFAD1003818BF0120154BC3F8B40AAC
:10403000012A1FD05DF8044B70470028FAD1104BBD
:104040000022C3F8B42AF5E70C4B4FF40021D962E3
:104050000A4B9B6F13F0010FFAD108490B6C23F048
:10406000030343F001030B64044B5B6A13F4002F5A
:10407000FAD0C7E7014B00225A63DBE700300E405D
:104080000000C6432DE9F04F8DB00091019200234E
:1040900009930A930B93069307930893039304934E
:1040A00005936D4A1288ADF808208DF80A30A0F506
:1040B000E163B3F5966F78D80646B0F5E16F8CBF33
:1040C0004FF001094FF0000976D94FF496644FF490
:1040D000E165B6F5E16F74D9604BD3F818320893F7
:1040E0001A0E0592C3F307430893DFF87481D8F8DA
:1040F0004C70C7F301778DF808703B464A4603A918
:1041000006A8FFF7ADFDD8F8EC30C3F301288DF811
:10411000098043464A4604A907A8FFF7A1FD721B80
:10412000089B0599C91A02FB01F1B1FBF4F10B914F
:1041300019440B91DDF80CA0DDF818C0AAEB0C05B2
:1041400002FB05F5B5FBF4F5099565440995DDF825
:1041500010E00798AEEB000B0BFB02F2B2FBF4F49D
:104160000A9404440A94059A8A4234D38B4232D882
:10417000A64530D3A0422ED8AA452CD3AC452AD888
:10418000019B73B1364BDB6D23F4FE4323F0020336
:1041900043EA0123B6F5E16F27D902210B43304AE8
:1041A000D365009B1BBB01271BE040F6BA312D48AD
:1041B00046F084FC002714E04FF416744FF4966523
:1041C00087E7264BD3F818320893C3F307220592EA
:1041D000DBB2089389E740F60841224846F06EFCBE
:1041E000002738460DB0BDE8F08F0021D6E7002249
:1041F00039464846FFF79EFD0746F0B10122414689
:104200004846FFF797FD0746E8B1A54238BF254667
:104210000995E72D28BFE7250995114B5B6E23F41F
:10422000FF7323F0010343EA4503B6F5E16F10D9AC
:10423000012213430A4A5366D3E740F6174109485F
:1042400046F03CFCCDE740F61F41064846F036FC00
:10425000C7E70022EDE700BF885B06000081E00FA2
:1042600000300E403C5B060008B5244B1A6FDB6C37
:1042700013F0010F09D012F0060F06D0132832D91F
:104280001438132831D8082320E01C4BDB6C13F0C2
:10429000010F09D112F0060F06D1092827D90A38D3
:1042A000092826D8082311E0144BDB6C13F0010F0A
:1042B00006D012F0060F03D127281CD8082305E0EA
:1042C00040F65D410E4846F0F9FB0023013B1A031E
:1042D00042EA03220949CB6C23F47F431343CB64A6
:1042E000FFF774FD08BD0423F0E71023EEE7042375
:1042F000ECE71023EAE71023E8E700BF00300E40A8
:104300003C5B060010B504460B4BD3F880390BB963
:10431000012800D953B1094A136F23F0070323433F
:104320001367074B1888FFF79FFF10BD40F67B41CE
:10433000044846F0C3FBEEE70000C64300300E40E1
:10434000809E00203C5B060008B5084AD36E43F00F
:104350008073D366064BD3F880391BB10420FFF776
:10436000D1FF08BD0020FFF7CDFFFAE700300E4077
:104370000000C64338B5554B02229A639B6B03F08D
:104380000F03934222D104460389C82B25D8A28863
:1043900023899A4227D8B4F90C30C82B29DC6378DA
:1043A000012B2CD0022B33D0E28842F210739A42B8
:1043B00037D8E3884A2B3AD9B3F5FA7F75D340F65C
:1043C000C312934274D84FF0005231E040F65521A9
:1043D0003F4846F073FB002565E040F65F213C480E
:1043E00046F06CFBD3E74FF42661394846F066FB94
:1043F000D1E740F66121364846F060FBCFE7A3885D
:10440000C82BD1D940F66521314846F057FBCBE7A0
:10441000A3880A2BC8D940F66A212D4846F04EFBE6
:10442000C2E740F672212A4846F048FBC1E7002265
:10443000264BDB6C23F0405323F00103B4F90C103E
:10444000002938DB01210A431343204AD364D2F800
:10445000EC3043F44073C2F8EC30A2881D4B1A8054
:10446000FFF772FFB4F90C102089FFF7D5FBA08885
:10447000FFF7FAFEA07BFFF7D9FB01221146608807
:10448000FFF700FE0546C0B1104AD36B43F48063CA
:10449000D3636078FFF798FDA37A202B13D0002216
:1044A0000D4BC3F89427284638BD4FF08052BFE724
:1044B0004FF04052BCE70021C5E740F6A92104486F
:1044C00046F0FCFAEFE70122EAE700BF00300E40B9
:1044D0003C5B0600809E00200000C64310B50446E9
:1044E0001F2808D8064AD2F8443423F00303234394
:1044F000C2F8443410BD5221024846F0DFFAF1E719
:1045000000A000408C5B06002DE9F0470D461646E2
:1045100098460446B8B1012841D0022842D0032869
:1045200043D0042844D0052844D0062845D0072885
:1045300045D0082845D0092845D00A2801D00023B5
:1045400003E0072301E040F2FF33EB4013F0010FDB
:104550003CD0002E4FD0B8F1000F00F0B080ECB38B
:10456000012C00F08F80022C00F08F80032C00F0D3
:104570008F80042C00F08F80052C00F08E80062C9C
:1045800000F08E80072C00F08D80082C00F08C80CD
:10459000092C00F08B800A2C1ED0002320E04FF65F
:1045A000C073D2E740F6FF73CFE74FF47F43CCE709
:1045B0000023CAE74FF6FF73C7E70023C5E70023D0
:1045C000C3E70F23C1E74FF44043BEE74FF4B07198
:1045D0009F4846F073FABCE7072301E040F2FF333F
:1045E000EB4013F0010F64D004EB440109010122F8
:1045F000AA40984B5A50072D00F2A58004EB4403C3
:104600001B01DFF85C929944AB004FF00F0A0AFAE5
:1046100003FA06FA03F746F0D5FAD9F8002087EA3C
:10462000020303EA0A035340C9F8003046F0CEFA09
:10463000002E40F0B380B8F1000F00F0C880002CCD
:1046400000F09E80012C00F0AB80022C00F0AB80CB
:10465000032C00F0AB80042C00F09480052C00F0BB
:10466000A880062C00F08E80072C00F08B80082C90
:1046700000F0A280092C00F0A1800A2C40F082807A
:1046800007267FE04FF6C073AAE740F6FF73A7E75F
:104690004FF47F43A4E70023A2E74FF6FF739FE7A1
:1046A00000239DE700239BE70F2399E74FF4404346
:1046B00096E740F22D41684846F000FA94E7BCB115
:1046C000012C23D0022C24D0032C25D0042C26D05E
:1046D000052C26D0062C27D0072C27D0082C27D035
:1046E000092C27D00A2C01D0434603E0072301E020
:1046F00040F2FF33EB4013F0010F1ED004EB4401F6
:1047000009010122AA40554B5A5074E74FF6C07375
:10471000F0E740F6FF73EDE74FF47F43EAE74346E7
:10472000E8E74FF6FF73E5E74346E3E74346E1E793
:104730000F23DFE74FF44043DCE740F2FE31464809
:1047400046F0BCF9DAE704EB44031B01DFF81491EF
:104750009944A5F1080292004FF00F0A0AFA02FAF2
:1047600006FA02F746F02EFAD9F8003087EA03027B
:1047700002EA0A025A40C9F8002046F027FA57E731
:1047800040F2FF36EE4016F0010F1AD004EB44045D
:104790002401012101FA05F52E4B1D51BDE8F087DA
:1047A0004FF6C076EEE740F6FF76EBE74FF47F4634
:1047B000E8E74FF6FF76E5E70F26E3E74FF44046DC
:1047C000E0E740F22D41244846F078F9DEE7B4B145
:1047D000012C24D0022C25D0032C26D0042C10D060
:1047E000052C25D0062C0CD0072C0AD0082C22D062
:1047F000092C23D00A2C04D14FF0070801E040F225
:10480000FF3828FA05F818F0010F1AD004EB440419
:104810002401012101FA05F5104B1D51BEE74FF6A9
:10482000C078EEE740F6FF78EBE74FF47F48E8E723
:104830004FF6FF78E5E74FF00F08E2E74FF4404806
:10484000DFE740F2FE31044846F038F9DEE700BF0A
:104850008C5B06000CA00046045A06000CA0004425
:1048600004A0004008A0004008B5094B4FF40072B6
:10487000C3F88020BFF34F8FBFF36F8F054B00212C
:10488000D96619624FF4AA40FEF7FEFB08BD00BFCF
:1048900000E100E000200E4038B505460C46072830
:1048A00008DC84F001041F2D09D8074B2B449B0022
:1048B0001C6038BD7721054846F000F9F1E79121E9
:1048C000034846F0FBF8F0E7A001F110D85B0600C2
:1048D000245C060010B5044658B323781B0633F059
:1048E000E0632BD1E378072B2DD801214FF4AA40A8
:1048F000FEF7CAFB23786178A27842EA012242EAF5
:104900000362134B1A6000221A62DA625A634FF094
:104910000042DA664FF0FF329A660E4A4FF4007199
:10492000C2F88011E3785B01DBB282F809331160D1
:1049300010BD9121084846F0C1F8CEE79221064803
:1049400046F0BCF8CEE7A321034846F0B7F8CCE721
:1049500000200E4000E100E0D85B06002DE9F041A8
:1049600005460C469046C3B201269E40072864DCEB
:10497000002C67D0236823F47C1323F00F03002B53
:1049800065D1A37A1B0433F4403365D1E37A1B0568
:1049900033F4801366D1237B5B0533F4001367D1B6
:1049A000364FBE66236805EB450207EB0212C2F8DC
:1049B0008030637BC2F88830A17AE37A1B0543EA32
:1049C0000143217B43EA4153C2F8843028F00302BB
:1049D00005EB450507EB0515C5F8982046F0F9F8F5
:1049E000FB6E3343FB66237A13B17B6B33437B63EC
:1049F000637A1BB1214AD36A3343D3621F4B1B68CE
:104A0000227922B1D243120262F47F4213406279CA
:104A10000AB143EA0223A2791AB1D24362F0FF023B
:104A20001340E27902B11343144A1360144B9E629F
:104A3000D66346F0D4F8BDE8F081EC21114846F089
:104A40003DF895E7ED210F4846F038F892E7F2215E
:104A50000C4846F033F894E740F20911094846F053
:104A60002DF893E740F20B11064846F027F892E73D
:104A700040F20D11034846F021F891E700200E4066
:104A800000200E44D85B060010B5C3B201249C4040
:104A900007280BDC46F09DF8074AD36E23EA04038F
:104AA000D366064B1C6246F09AF810BD40F297118F
:104AB000034846F003F8EDE700200E4000200E44C6
:104AC000D85B060010B5C3B201249C4007280CDC5B
:104AD00046F07FF80B4B1B6A23420CD1094B9B6AB3
:104AE00034EA03030CD0002406E040F2B511064876
:104AF00045F0E4FFECE7002446F071F8204610BDD5
:104B00000124F9E700200E40D85B060008B50F4BE2
:104B10005B6813F4802F0DD10C4B5B6813F4403F9E
:104B20000ED10B4B41F671321A649A6822F00102E1
:104B30009A6008BD40F20331064845F0BFFFEBE73D
:104B40004FF44171034845F0B9FFEAE700300E40E9
:104B500000000E40705C0600034B9A6822F00102D0
:104B60009A6000221A64704700000E400C4B0D4AF8
:104B7000D26912F0010F02D00BB1013BF7E74BB144
:104B8000084B18610122DA60DB6913F0040F04D1CD
:104B9000002070476FF0020070474FF0FF30704701
:104BA0008096980000000E4061B338B504460D466B
:104BB000184B1A68184B9A4201D900210CE040F2B8
:104BC000F731164845F07AFFF7E7EBB1144BDB6994
:104BD00013F0020F1BD10446A94211D2204650F80F
:104BE000042B0F4B9A6101310822DA600D4B0C4AFD
:104BF000D26912F0010FE8D0002BE6D0013BF6E7B6
:104C0000002038BD002070476FF00200F9E76FF018
:104C10000100F6E7441000203F420F00705C0600E0
:104C200000000E40809698002DE9F04780460E4621
:104C300017463C4B1A6C1FFA82F941F671321A641E
:104C400010F0030F16D117F0030F19D1364B5B6824
:104C500013F4802F1AD1344B5B6813F4403F1BD1FF
:104C6000304A936843F001039360BF081AD00023D1
:104C70001D4632E040F244412C4845F01FFFE2E778
:104C800040F24741294845F019FFDFE740F24B4128
:104C9000264845F013FFDEE740F24C41234845F03B
:104CA0000DFFDDE740F25441204845F007FFDEE705
:104CB0001C498A6822F001028A60B9F1000F2DD0E8
:104CC0000A460021116429E051463046FFF76CFF87
:104CD0000346C0B9554406EB8A06BD4213D208EB21
:104CE00085042046FFF742FF03460028E0D1C4F3C5
:104CF0000A04C4F50064A308A7EB050ABAEB940FF5
:104D0000E2D39A46E0E707498A6822F001028A6006
:104D1000B9F1000F02D00A46002111641846BDE81F
:104D2000F08700BF00000E4000300E40705C0600AF
:104D300038B50446384B1D6CADB241F671321A6479
:104D4000C0F30A030BBB354B5B6813F4802F22D1F1
:104D5000324B5B6813F4403F23D12F4B9A6842F0EB
:104D600001029A601C610122DA60DB6913F0040F12
:104D70001DD1294B0222DA60294B274AD26912F051
:104D8000010F20D0FBB1013BF7E740F2BA412548C3
:104D900045F094FED7E740F2BD41224845F08EFE33
:104DA000D6E740F2BE411F4845F088FED5E71A4AD3
:104DB000936823F00103936015B1134600221A642F
:104DC0004FF0FF300DE0144AD26912F0020F09D102
:104DD000A3B1114A936823F001039360D5B1002079
:104DE000106438BD0C4A936823F00103936015B139
:104DF000134600221A646FF00100F2E7064A936836
:104E000023F00103936015B1134600221A646FF07A
:104E10000200E6E70020E4E700000E4000300E400C
:104E200080969800705C060038B504460D4602284E
:104E30001AD86B791F2B1CD82B786A7843EA820327
:104E4000AA7843EA8213EA7843EA02132A7943EA0A
:104E5000C2236A7943EA0233AA7943EA424304341B
:104E60002401064A135138BD4C21054845F026FE61
:104E7000DFE74F21024845F021FEDDE70020044036
:104E8000BC5C0600014B1860704700BF0000844204
:104E9000037813B3012342780AB3042213438278C0
:104EA000FAB110221343C278EAB1202213430279E7
:104EB00043EA0223427943EA02338279AAB14FF4EA
:104EC00000421343C27943EA0243027A7AB14FF4B3
:104ED00000321343074A136070470023DBE70022C8
:104EE000DCE70022DEE70022E0E70022E9E700221B
:104EF000EFE700BF0020044010B50446D8B1104AC7
:104F0000D2F8E4309B0003F03C03D2F8E010C1F388
:104F100081110B43A370D2F8E03003F03F036370BC
:104F2000D2F8E83003F0F003D2F8EC20C2F3031219
:104F30001343237010BD5721024845F0BFFDDEE743
:104F400000FF0FE0085D0600F8B505460E461C465A
:104F500017465AB186B1402C44D012D8C4B1202C87
:104F600056D1B7EBD60F36D8082315E04FF4A17110
:104F70002D4845F0A3FDEDE72C48FEF79FFA0646C5
:104F8000E9E7602C44D1B7EB960F3AD8042303E04D
:104F9000B7EB161F18D8102307FB03F14B0803EBE0
:104FA0004613B3FBF1F3203BDE00214AB2EBC30F03
:104FB00034D31F4A32402B6823F060032B602B68E8
:104FC0001C432C606A61F8BD4FF4BA71164845F075
:104FD00075FD1023E0E740F27911134845F06EFDAE
:104FE0000823D9E7134BA3FB0623B7EB930F01D894
:104FF0000623D1E74FF4BF710B4845F05FFD062350
:10500000CAE740F28311084845F058FD0423C3E77E
:1050100040F28911044845F051FDD4E74FF4D071B6
:10502000014845F04BFDC4E7585D060040410500CE
:10503000F8FF7F00ABAAAAAA70B505460C46164633
:105040005AB184B1013C7600B4FBF6F426020B4B56
:1050500013EA04230CD16E6170BD40F28E21084822
:1050600045F02CFDEDE70748FEF728FA0446E9E78E
:1050700040F2B321024845F021FDECE7070080FF34
:10508000585D06004041050038B504460D460D4BFD
:10509000984210D003F5806398420CD003F58063EA
:1050A000984208D003F58063984204D04FF43371DE
:1050B000054845F003FDEB435B0003F00A03E360A2
:1050C000E56038BD00000140585D060010B504469B
:1050D000224B984210D003F5806398420CD003F520
:1050E0008063984208D003F58063984204D040F270
:1050F00042411B4845F0E2FC40F6AA63E36000230E
:10510000236041F205026260A3606361E364154AB3
:10511000A26423666367A367E367104B9C420BD0CE
:1051200003F580639C4207D003F580639C4203D063
:1051300003F580639C4201D1002323650023A3650E
:1051400003F1804303F582339C4203D003F50063EF
:105150009C4201D10023E36510BD00BF0000014067
:10516000585D0600F9FF010038B504460D46294B8D
:10517000984210D003F5806398420CD003F5806309
:10518000984208D003F58063984204D040F2FD2194
:10519000214845F093FC2046FFF798FFAB7C1BB1FC
:1051A000236843F080432360EB7C002B2CD16B7B86
:1051B0002A8A1343EA89134363602B7BAA686968D0
:1051C0002046FFF7C1FE6B7D1BB1236843F480339B
:1051D0002360AB7D1BB1236843F400432360EB7D68
:1051E0001B0703F0E0432A7E120502F4E00213439A
:1051F0002366636F23F030036367636F6A7E134334
:1052000063672B78E36038BD297D204645F041FE79
:10521000CDE700BF00000140585D060038B50446E8
:105220000D462E4B984210D003F5806398420CD067
:1052300003F58063984208D003F58063984204D058
:1052400040F26931264845F039FC2046FFF73EFF21
:1052500022682B8A43F00103A97B002934D04FF444
:1052600080610B431343236023682A7D002A2DD0DD
:105270004FF0005213432360AB7C4BBB2B7B43F4BA
:1052800080536360AA6869682046FFF7D5FE6B7B90
:105290000BB11023E3606B7D1BB1236843F48033B3
:1052A0002360AB7D1BB1236843F400432360EB7D97
:1052B0001B0703F0E0432A7E120502F4E0021343C9
:1052C00023662B78E36038BD0021CAE70022D1E7CE
:1052D000E97C204645F0DDFDD0E700BF000001403D
:1052E000585D060030B58646049C94460AB94FF0D6
:1052F000040C9C4538BF9C46DEF80820CCF1000029
:1053000010400CF1FF35154000D06546284401449B
:10531000C3F1000C01EA0C0C5D1E294000D01946B7
:105320006144DEF804309B1A01338A1A93420BD38E
:10533000CEF80810002323700B4B63604FF4E56335
:10534000A3600A4BE36030BD039909B1D21A0A6029
:1053500016232370044B636040F22273A360034B57
:10536000E3600020EFE700BFA85D0600085E0600CE
:105370002DE9F04182B00A9D4AB908232B701F4BDA
:105380006B604FF4D963AB601D4BEB60FEE70E46DC
:105390001C46174613B1013B23420AD04CB10823E7
:1053A0002B70164B6B6040F2CB63AB60144BEB6021
:1053B000FEE745F00EFC80460195099B0093089B93
:1053C000224639463046FFF78DFF04462B7833B925
:1053D000404645F004FC204602B0BDE8F08140465E
:1053E00045F0FDFB16232B70044B6B6040F2D76336
:1053F000AB60034BEB600024EDE700BFA85D060047
:10540000205E0600F0B585B005460C4616461F46E0
:105410006BB17CB102970023019301230093042315
:10542000324621462846FFF7A3FF05B0F0BD45F000
:1054300047FDEEE7004CEDE78010002000B585B099
:105440000C4B1B78012B09D0684600F0B5FC9DF889
:10545000003063B9002005B05DF804FBFEF774FB73
:1054600010B16FF00500F6E74FF0FF30F3E74FF0B3
:10547000FF30F0E7299F0020094B1B78012B01D05A
:1054800000207047074B1B78012B04D1064B1B787B
:105490001BB103207047012070470220704700BFF6
:1054A000269F0020299F00202A9F002000B585B05C
:1054B000FEF74AFB58B9094B1B78012B0AD0684606
:1054C00000F006FC4FF0FF3005B05DF804FB6FF014
:1054D0000500F9E74FF0FF30F6E700BF299F0020F5
:1054E00000B585B0FEF730FB70B90A4B1B781BB1D5
:1054F000012005B05DF804FB684600F047FB9DF80D
:10550000003023B90020F4E76FF00500F1E74FF019
:10551000FF30EEE72A9F002030B585B00546FEF744
:1055200013FB002836D1BDB1AC68FCB1EB68172B7A
:1055300032D914F0030F31D1002323742968F1B15B
:10554000002262616B46204600F00CFE9DF80030A0
:10555000BBB9204605B030BD182044F075F90446AB
:105560000028F6D0012303740D49E9E7182044F020
:105570006BF904460028ECD001230374DEE70849E8
:10558000DEE7237C012B01D00024E2E7204644F033
:1055900063F9F9E70024DCE70024DAE70024D8E720
:1055A000385E060030B585B00446FEF7CDFA002817
:1055B0003CD1D4B1A5680DB3E3681B2B38D915F0E5
:1055C000030F37D100232B762168F9B16A462846AC
:1055D00001F0D8F89DF80030D3B914B3636813F024
:1055E000010F1ED001236B761DE01C2044F02CF926
:1055F0000546C0B1012303760F49E7E71C2044F0BC
:1056000023F9054678B101230376DDE70A49DDE792
:105610002B7E012B01D0002505E0284644F01CF923
:10562000F9E700236B76284605B030BD0025FAE780
:105630000025F8E70025F6E7445E060070B584B063
:1056400005460E461446FEF77FFA002837D1002D96
:1056500037D0B4B1A568F5B1E368172B33D915F08D
:10566000030F32D100232B742168E9B16B46324617
:10567000284601F0C1FB9DF80030BBB9284604B0B4
:1056800070BD182044F0E0F805460028F6D001234C
:1056900003740F49EAE7182044F0D6F805460028BD
:1056A000ECD001230374DFE70949DFE72B7C012BF2
:1056B00001D00025E2E7284644F0CEF8F9E70025BE
:1056C000DCE70025DAE70025D8E70025D6E700BFAC
:1056D0004C5E06002DE9F04F8FB006460F4614468B
:1056E000FEF732FA002840F0F980002E00F0F88032
:1056F000002C34D0A568002D4DD0E368CB2B40F2B0
:10570000F38015F0030F40F0F180002385F8C430DA
:10571000D4F814B0BBF1000F47D02369002B5AD046
:10572000002B6BD0D4F8109019F0070F66D100232E
:1057300085F8C530D4F80080B8F1000F68D0A369AF
:10574000002B7AD0B3F1FF3F00F0A180372B62DC51
:105750005FFA83FACAF1370A5FFA8AFA6FE0CC205F
:1057600044F072F80546002800F08D80012380F88F
:10577000C4304FF4806044F067F88146002800F0A0
:10578000B180012385F8C5304FF01F0ADFF864812E
:105790004FF4806B53E0CC2044F056F805460028C7
:1057A00071D0012380F8C430B2E74FF4806044F038
:1057B0004BF8814628B1012385F8C5304FF4806B42
:1057C000B8E795F8C430012B01D04D465BE0284680
:1057D00044F042F8F9E7584644F036F8814618B1EB
:1057E000012385F8C530A5E795F8C430012B01D019
:1057F0004D4648E0284644F02FF8F9E795F8C430C4
:10580000012B01D000253EE0284644F025F8F9E7B9
:10581000DFF8E08093E795F8C530012B05D095F8C7
:10582000C430012B05D000252DE0484644F014F883
:10583000F5E7284644F010F8F5E74FF01F0A0AABE9
:1058400000222B4905F19C0000F08CFC9DF82830CB
:1058500003BB2BF00704A4080AAB089307230793A4
:10586000002306930593049303940293CDF80490C8
:10587000CDF800A03B4632464146284601F054FD93
:105880009DF82830C3B928460FB0BDE8F08F4FF01F
:10589000400AD4E795F8C530012B05D095F8C430FF
:1058A000012B05D00025EEE7484643F0D5FFF5E78C
:1058B000284643F0D1FFF5E795F8C530012B05D018
:1058C00095F8C430012B05D00025DCE7484643F0AD
:1058D000C3FFF5E7284643F0BFFFF5E70025D2E711
:1058E0000025D0E70546CEE70025CCE70025CAE72E
:1058F000645E0600585E0600044B1B78012B01D045
:1059000000207047024B1868704700BF299F002095
:10591000A05500202DE9F04184B007460C461646FC
:10592000FEF712F9002840F0DC80002F00F0DB8049
:10593000002C00F0DA80033424F003053EB3B46891
:10594000002C3ED0F3683B2B40F2D18014F0030FC3
:1059500040F0CF80002384F824307069002839D0CB
:10596000D6F81080B8F1000F6AD0B8F1000F00F03F
:10597000888005FB07F39842C0F08380336913F0F9
:10598000030F7ED12362002384F825302CE03C20D5
:1059900043F05AFF0446002844D0012380F8243005
:1059A00005FB07F043F050FF0646206220B10123BB
:1059B00084F82530504E1AE0204643F04DFF34461F
:1059C00030E03C2043F040FF044658B3012380F808
:1059D0002430C2E705FB07F043F036FF8046206223
:1059E00020B3012384F825303668002E53D0A762F7
:1059F000E562002323636363A3636B463A46314643
:105A0000204601F0F9F99DF80030002B45D16B4696
:105A10000022314604F1100001F0EEF99DF800304B
:105A2000002B4CD1204604B0BDE8F08194F824301E
:105A3000012B01D04446F5E7204643F00DFFF9E77E
:105A400005FB07F3984208D343F0FEFE8046206230
:105A500068B1012384F82530C6E794F82430012B7F
:105A600001D04446DEE7204643F0F6FEF9E794F81D
:105A70002430012B01D04446D4E7204643F0ECFE0D
:105A8000F9E794F82430012B01D00024CAE720461E
:105A900043F0E2FEF9E7184EA9E794F82530012B10
:105AA00005D094F82430012B05D00024BAE7206AF1
:105AB00043F0D2FEF5E7204643F0CEFEF5E794F83A
:105AC0002530012B05D094F82430012B05D000247B
:105AD000A8E7206A43F0C0FEF5E7204643F0BCFE8D
